:020000040800F2
:10000000A4590020151D0008811D00087B2D000843
:10001000811D0008811D0008811D000800000000EE
:10002000000000000000000000000000811D00082A
:10003000811D000800000000811D00083D0C000823
:10004000811D0008811D0008811D0008811D000818
:10005000811D0008811D0008811D0008811D000808
:10006000811D0008811D0008811D0008811D0008F8
:10007000811D0008811D0008811D0008811D0008E8
:10008000811D0008811D0008811D0008811D0008D8
:10009000811D0008811D0008811D00083925000808
:1000A000811D0008811D0008811D0008811D0008B8
:1000B000811D0008811D0008811D0008811D0008A8
:1000C000811D0008811D0008811D0008811D000898
:1000D000811D0008811D000829090008811D0008F4
:1000E000811D0008811D0008811D0008000000001E
:1000F0000000000000000000000000000000000000
:100100000000000000000000811D0008811D0008A3
:10011000811D0008811D0008811D0008811D000847
:10012000811D0008811D0008811D0008811D000837
:10013000811D0008811D0008811D0008811D000827
:10014000811D0008811D0008811D0008811D000817
:100150005FF808F180B586B000AF78607B68BB605F
:100160004FF00003BB814FF00003FB814FF0000311
:100170003B824FF00003BB824FF00C037B8207F100
:1001800008034FF48840C4F20000194602F0FCFB5B
:100190004FF48840C4F200004FF0010102F0CAFCA5
:1001A00007F11807BD4680BD80B584B000AF4FF0A1
:1001B00005004FF0010101F055FD4FF400304FF004
:1001C000010101F07BFD4FF00403BB814FF01803E8
:1001D000FB734FF00103BB7307F10C034FF4006096
:1001E000C4F20100194600F0D9FE4FF008033B812C
:1001F0004FF00403FB724FF00103BB7207F10803D9
:100200004FF40060C4F20100194600F0C7FE4FF041
:1002100002033B814FF00403FB724FF00103BB72FA
:1002200007F108034FF40060C4F20100194600F022
:10023000B5FE4FF001033B814FF01003FB724FF00E
:100240000103BB7207F108034FF40060C4F2010020
:10025000194600F0A3FE4FF4E130FFF77BFF4FF0AB
:1002600026033B714FF000037B714FF00003BB711D
:100270004FF00103FB7107F10403184602F09CFDE7
:100280004FF40060C4F201004FF001014FF0000292
:1002900000F078FF07F11007BD4680BD80B582B041
:1002A00000AF0346FB71FB794FF48840C4F20000B5
:1002B00040F225511A4602F05DFC07F10807BD46E1
:1002C00080BD00BF80B483B000AF40F25C53C2F287
:1002D00000034FF000021A704FF000037B600CE047
:1002E00040F24C53C2F200037A689B184FF00002B0
:1002F0001A707B6803F101037B607B680F2BEFDDD5
:1003000007F10C07BD4680BC704700BF80B500AF49
:1003100000BF4FF48840C4F200004FF0000102F02B
:10032000A1FC0346002BF4D14FF48840C4F2000036
:1003300002F086FC0346DBB2184680BD80B582B071
:1003400000AF0346FB7100BF4FF48840C4F20000C9
:100350004FF0800102F086FC0346002BF4D0FB79BD
:100360009BB24FF48840C4F20000194602F054FCDE
:1003700007F10807BD4680BD80B584B000AF0346D5
:10038000FB804FF00003FB734FF00003BB73FB884F
:10039000BB813B7B1846FFF7D1FF7B7B1846FFF7FD
:1003A000CDFF4FF00003FB730CE0FB7B07F1100265
:1003B000D31813F8042CBB7BD318BB73FB7B03F15E
:1003C0000103FB73FB7B012BEFD9BB7B1846FFF7C7
:1003D000B5FF07F11007BD4680BD00BF80B584B0F2
:1003E00000AF0346FB714FF00003FB734FF00003B7
:1003F000BB734FF000033B73FB797B733B7B184669
:10040000FFF79CFF7B7B1846FFF798FF4FF0000338
:10041000FB730CE0FB7B07F11002D31813F8042CDC
:10042000BB7BD318BB73FB7B03F10103FB73FB7B2B
:10043000012BEFD9BB7B1846FFF780FF07F11007B0
:10044000BD4680BD80B582B000AF4FF01E037B601B
:10045000786801F0EDFE40F24853C2F200034FF01D
:1004600001021A70FFF72EFF07F10807BD4680BD95
:1004700080B584B000AF78600B467B804FF00003FE
:10048000FB814FF00003FB810AE0FB897A68D318F7
:100490001B781846FFF752FFFB8903F10103FB812C
:1004A000FA897B889A42F0D307F11007BD4680BDD8
:1004B00080B586B000AF786000F0D2FB02467B6862
:1004C000D3183B614FF00003FB754FF00003BB7581
:1004D0004FF00003FB7327E000BF4FF48840C4F2E5
:1004E00000004FF0200102F0BDFB0346002B05D1B8
:1004F00000F0B6FB02463B699A42EED3BB7DFB732C
:100500004FF48840C4F2000002F09AFB0346BB752A
:10051000FB7B4F2B05D1BB7D4B2B02D14FF0010351
:1005200001E04FF00003FB75FB7D83F00103DBB2BC
:10053000002B05D000F094FB02463B699A42CBD3D6
:10054000FB7D184607F11807BD4680BD80B500AF9A
:1005500043F28010C0F600004FF00301FFF788FF60
:100560004FF47A60FFF7A4FF0346184680BD00BF32
:1005700080B588B000AFF860B9607A6000F070FBB9
:1005800002467B68D3187B614FF00003FB774FF086
:100590000003BB774FF000037B774FF00003FB7441
:1005A0004FF000037B8351E000BF4FF48840C4F25A
:1005B00000004FF0200102F055FB0346002B05D14F
:1005C00000F04EFB02467B699A42EED37B7FFB74C0
:1005D0004FF48840C4F2000002F032FB03467B7700
:1005E0007B8B002B05D17B7F0D2B2ED07B7F0A2BA5
:1005F0002BD07A8BBB689A4211D1BB6803F1FF33D1
:10060000FA68D3184FF000021A704FF00103BB775D
:1006100043F2A010C0F6000001F070F916E07B8BE9
:10062000FA68D3187A7F1A707B8B03F101037B83FE
:10063000FB7C0D2B05D17B7F0A2B02D14FF00103F0
:1006400001E04FF00003FB7700E000BFFB7F83F089
:100650000103DBB2002B0BD0BB7F83F00103DBB2C5
:10066000002B05D000F0FCFA02467B699A429BD32E
:10067000FB7F002B10D0BB7F83F00103DBB2002B8C
:100680000AD07B8BA3F10203FA68D3184FF0000263
:100690001A704FF0010305E0FB684FF000021A707A
:1006A0004FF00003184607F12007BD4680BD00BF8C
:1006B00080B582B000AF00E000BFFFF727FE034621
:1006C000FB71FB793C2BF7D140F24853C2F2000397
:1006D0004FF001021A7043F2B810C0F6000000F0AB
:1006E00019FA4FF00103184607F10807BD4680BD0F
:1006F0002DE9F04184B000AF6B4698464FF064039B
:10070000FB73FB7B03F1FF33BB60FA7B4FF000030D
:100710004FEA52764FEAC30131434FEAC200FA7BF7
:100720004FF000034FEA52714FEAC3050D434FEA01
:10073000C204FB7B03F1070303F107034FEAD30372
:100740004FEAC303ADEB030D6B4603F107034FEA1A
:10075000D3034FEAC3037B6040F24853C2F2000365
:100760004FF000021A7043F2C810C0F600004FF0BC
:100770000401FFF77DFE4FF4FA60FFF799FE43F2A4
:10078000C810C0F600004FF00401FFF771FE41F2FF
:100790007070FFF78DFE0346002B05D043F2D0109A
:1007A000C0F6000000F0B6F9FFF7D0FE034683F074
:1007B0000103DBB2002B06D043F2E810C0F60000C4
:1007C00000F0A8F905E043F20820C0F6000000F0B0
:1007D000A1F943F22420C0F600004FF00501FFF715
:1007E00047FE40F6B830FFF763FE0346002B06D005
:1007F00043F22C20C0F6000000F08CF905E043F233
:100800004820C0F6000000F085F9FFF79FFE034680
:1008100083F00103DBB2002B08D043F26420C0F662
:10082000000000F077F94FF0000336E043F2882033
:10083000C0F600004FF00401FFF71AFE7A68FB7B58
:100840001046194641F28832FFF792FE034683F0C4
:100850000103DBB2002B08D043F29020C0F6000069
:1008600000F058F94FF0000317E043F2BC20C0F647
:10087000000000F04FF97B68184600F04BF943F296
:10088000D820C0F6000000F045F943F2DC20C0F6A5
:10089000000000F03FF94FF00103C546184607F18C
:1008A0001007BD46BDE8F08180B500AF4FF00000F5
:1008B000FFF7F4FC00E000BF40F24853C2F200032F
:1008C0001B78002B01D1FFF7F3FE40F24853C2F230
:1008D00000031B78002B03D04FF00100FFF7DEFC74
:1008E00000BF40F24853C2F200031B78002B06D031
:1008F00040F24853C2F200031B78032BF1D14FF0B2
:100900000000FFF7CBFC40F24853C2F200031B7813
:10091000002BD0D0FFF796FD43F20C30C0F600005C
:1009200000F0F8F8C7E700BF80B582B000AF4FF421
:100930008840C4F2000040F2255102F0B3F90346AA
:10094000002B00F097804FF48840C4F2000002F0C2
:1009500077F90346FB71FB790A2B06D140F25C5311
:10096000C2F200031B78002B06D140F25C53C2F2A6
:1009700000031B780F2B16D140F25C53C2F2000328
:100980001B781A4640F24C53C2F200034FF00001AC
:10099000995440F25C53C2F200034FF000021A7007
:1009A000FFF790FC21E0FB790D2B1ED0FB790A2B81
:1009B0001BD0FB793C2B18D040F25C53C2F20003F1
:1009C0001B781A4640F24C53C2F20003F97999544D
:1009D00040F25C53C2F200031B7803F10103DAB268
:1009E00040F25C53C2F200031A7040F25C53C2F250
:1009F00000031B78012B3CD143F2C433C0F6000343
:100A00001A7840F24C53C2F200031B789A4214D178
:100A100040F24853C2F200031B78032B26D040F269
:100A20004853C2F200034FF003021A7043F2C83079
:100A3000C0F6000000F06EF818E043F2D433C0F6C0
:100A400000031A7840F24C53C2F200031B789A421A
:100A50000CD140F24853C2F200034FF000021A706A
:100A600043F2D830C0F6000000F054F8FFF72AFC3B
:100A700000E000BF07F10807BD4680BD80B582B029
:100A800000AF786040F27053C2F200031A687B68CE
:100A9000D9B240F26053C2F20003995402F101024C
:100AA00040F27053C2F200031A6040F27053C2F277
:100AB00000031A6840F26053C2F200034FF00001D5
:100AC000995440F27053C2F200031B6803F1010312
:100AD0000F2B05D87B680A2B02D07B68002B14D122
:100AE00040F27053C2F200034FF000021A6040F26D
:100AF0006053C2F200034FF0040019464FF00002A9
:100B000002F032F90346002B00BF07F10807BD468B
:100B100080BD00BF80B582B000AF78607B684FF0C9
:100B2000040019464FF0000202F01EF90346002BA4
:100B300000BF07F10807BD4680BD00BF80B483B089
:100B400000AF03463960FB7197F90730002B10DACC
:100B50004FF46D43CEF20003FA7902F00F02A2F1D6
:100B600004013A68D2B24FEA0212D2B25B181A7686
:100B70000DE04FF46143CEF2000397F907103A6895
:100B8000D2B24FEA0212D2B25B1883F8002307F107
:100B90000C07BD4680BC704780B582B000AF78605E
:100BA0007A686FF07F439A4202D94FF001031FE049
:100BB0004EF21003CEF200037A6822F07F4202F177
:100BC000FF325A604FF0FF304FF00F01FFF7B6FFD2
:100BD0004EF21003CEF200034FF000029A604EF284
:100BE0001003CEF200034FF007021A604FF000032B
:100BF000184607F10807BD4680BD00BF80B586B026
:100C000000AF40F27453C2F200034FF000021A60CA
:100C10003B46184600F0F6FE3B687B617A6948F275
:100C20001F53C5F2EB13A3FB02134FEA53131846ED
:100C3000FFF7B2FF07F11807BD4680BD80B400AFD3
:100C400040F27453C2F200031B6803F10A0240F23F
:100C50007453C2F200031A60BD4680BC704700BFE7
:100C600080B400AF40F27453C2F200031B68184610
:100C7000BD4680BC704700BF80B485B000AF7860CF
:100C800040F27453C2F200031A687B68D318FB6009
:100C900000BF40F27453C2F200031A68FB689A4224
:100CA000F7D307F11407BD4680BC704780B500AF8D
:100CB0004FF48053C4F202034FF48052C4F2020294
:100CC000126842F001021A604FF48052C4F202022C
:100CD0004FF48053C4F202035B6819464FF00003DF
:100CE000CFF2FF030B4053604FF48053C4F2020372
:100CF0004FF48052C4F20202126822F0847222F48D
:100D000080321A604FF48053C4F202034FF48052D1
:100D1000C4F20202126822F480221A604FF4805357
:100D2000C4F202034FF48052C4F20202526822F469
:100D3000FE025A604FF48053C4F202034FF4805213
:100D4000C4F20202126822F0A0521A604FF48053DB
:100D5000C4F202034FF47F029A604FF48053C4F24E
:100D600002034FF00002DA6200F008F84FF46D431E
:100D7000CEF200034FF000629A6080BD80B500AFF4
:100D800000F002F880BD00BF80B483B000AF4FF028
:100D900000037B604FF000033B604FF48053C4F2CC
:100DA00002034FF48052C4F20202126842F480320D
:100DB0001A604FF48053C4F202031B6803F400333B
:100DC0003B607B6803F101037B603B68002B03D130
:100DD0007B68B3F5A06FECD14FF48053C4F20203EB
:100DE0001B6803F40033002B03D04FF001033B607A
:100DF00002E04FF000033B603B68012B40F0C880ED
:100E00004FF40053C4F202034FF40052C4F2020242
:100E1000126842F010021A604FF40053C4F2020349
:100E20004FF40052C4F20202126822F003021A6068
:100E30004FF40053C4F202034FF40052C4F2020212
:100E4000126842F002021A604FF48053C4F20203A7
:100E50004FF48052C4F2020252685A604FF4805339
:100E6000C4F202034FF48052C4F2020252685A6084
:100E70004FF48053C4F202034FF48052C4F20202D2
:100E8000526842F480625A604FF48052C4F2020207
:100E90004FF48053C4F20203DB6A19464FF47043E7
:100EA000CFF6FE730B40D3624FF48053C4F20203BB
:100EB0004FF48052C4F20202D26A42F4823242F407
:100EC0001172DA624FF48053C4F202034FF480527D
:100ED000C4F20202126842F080621A6000BF4FF44E
:100EE0008053C4F202031B6803F00063002BF6D0AA
:100EF0004FF48053C4F202034FF48052C4F2020252
:100F0000526822F47C125A604FF48053C4F20203F8
:100F10004FF48052C4F20202526842F4E8125A605E
:100F20004FF48053C4F202034FF48052C4F2020221
:100F3000126842F080721A6000BF4FF48053C4F20E
:100F400002031B6803F00073002BF6D04FF48053AC
:100F5000C4F202034FF48052C4F20202526822F03B
:100F600003025A604FF48053C4F202034FF48052DC
:100F7000C4F20202526842F002025A6000BF4FF40B
:100F80008053C4F202035B6803F00C03082BF6D114
:100F900007F10C07BD4680BC704700BF80B489B024
:100FA00000AF786039604FF00003FB614FF0000341
:100FB0003B614FF00003BB614FF00003FB604FF05B
:100FC00000037B614FF00003BB603B68DB7803F0FC
:100FD0000F03FB613B68DB7803F01003002B04D0A8
:100FE0003B689B78FA691343FB613B681B88DBB263
:100FF000002B4ED07B681B687B614FF00003BB6108
:1010000041E0BB694FF0010202FA03F3FB603B6869
:101010001B881A46FB6813403B613A69FB689A4299
:101020002DD1BB694FEA8303FB60FB684FF00F02D1
:1010300002FA03F3BB60BB686FEA03037A691340EB
:101040007B61FB68FA6902FA03F37A6913437B61F7
:101050003B68DB78282B07D1BB694FF0010202FA0D
:1010600003F27B685A610AE03B68DB78482B06D1C3
:10107000BB694FF0010202FA03F27B681A61BB6997
:1010800003F10103BB61BB69072BBAD97B687A699D
:101090001A603B681B88FF2B53D97B685B687B61B8
:1010A0004FF00003BB6146E0BB6903F108034FF05A
:1010B000010202FA03F3FB603B681B881A46FB68D7
:1010C00013403B613A69FB689A4230D1BB694FEAF1
:1010D0008303FB60FB684FF00F0202FA03F3BB606F
:1010E000BB686FEA03037A6913407B61FB68FA69A6
:1010F00002FA03F37A6913437B613B68DB78282BA0
:1011000008D1BB6903F108034FF0010202FA03F2B0
:101110007B685A613B68DB78482B08D1BB6903F1D7
:1011200008034FF0010202FA03F27B681A61BB69FF
:1011300003F10103BB61BB69072BB5D97B687A69F1
:101140005A6007F12407BD4680BC704780B483B065
:1011500000AF78600B467B807A887B681A6107F164
:101160000C07BD4680BC704780B483B000AF786088
:101170000B467B807A887B685A6107F10C07BD4675
:1011800080BC704780B483B000AF786013460A46D5
:101190007A807B707B78002B03D07A887B681A6119
:1011A00002E07A887B685A6107F10C07BD4680BC73
:1011B000704700BF90B484B000AF02460B46FA718E
:1011C000BB714FF00003FB60BB7903F003034FEAF0
:1011D00083034FF00F0202FA03F3FB604FF00003AA
:1011E000C4F20103BA794FEA9202D2B210464FF02C
:1011F0000002C4F20102B9794FEA9101C9B201F1CA
:10120000020152F821201146FA686FEA02021140E9
:1012100000F1020243F822104FF00003C4F2010370
:10122000BA794FEA9202D2B210464FF00002C4F2ED
:101230000102B9794FEA9101C9B201F1020152F8F4
:1012400021201146FC79BA7902F003024FEA8202AA
:1012500004FA02F2114300F1020243F8221007F1EE
:101260001007BD4690BC704780B500AFFFF71EFD6C
:10127000FFF7C4FC00F002F8FEE700BF80B500AF46
:10128000FEF792FF00F080FD00F0E2FDFFF7DAF8D4
:10129000FFF72EFA0346002B01D0FFF705FB80BDB8
:1012A00080B483B000AF0346FB7107F10C07BD4665
:1012B00080BC704780B483B000AF78600B46FB7091
:1012C0007B68FA781A704FF00103184607F10C0793
:1012D000BD4680BC704700BF80B485B000AF786069
:1012E00039604FF00003FB600FE03B681A787B68C1
:1012F0001A707B6803F101037B603B6803F1010313
:101300003B60FB6803F10103FB603B681B78002B2B
:10131000EBD1FB68184607F11407BD4680BC704747
:1013200080B586B000AFF8607A603B600B46FB7218
:101330004FF000037B617B6803F1FF337B603B6808
:10134000092B26D93A684CF6CD43CCF6CC43A3FB07
:1013500002134FEAD303FA7AF86811467A68FFF766
:10136000DFFF03467B617B69FA68D318FB6013E0FB
:10137000FB7AF8681946FFF79DFFFB6803F101034C
:10138000FB607B6903F101037B617B6803F1FF3341
:101390007B607B68002BEBDC39684CF6CD43CCF6E8
:1013A000CC43A3FB01234FEAD30213464FEA830346
:1013B0009B184FEA4303CA1AD3B203F13003DBB2DE
:1013C000F8681946FFF776FF03467A69D3187B6100
:1013D0007B69184607F11807BD4680BD80B586B009
:1013E00000AFF8607A603B600B46FB724FF0000381
:1013F0007B613B68002B04DA3B68C3F100033B616F
:1014000001E03B683B617B6803F1FF337B603B6934
:10141000092B2CD93B68002B13DA3A694CF6CD43E3
:10142000CCF6CC43A3FB02134FEAD303C3F1000372
:10143000FA7AF86811467A68FFF7D0FF03467B61B5
:1014400010E03A694CF6CD43CCF6CC43A3FB021333
:101450004FEAD303FA7AF86811467A68FFF7BEFFBD
:1014600003467B617B69FA68D318FB602BE03B681D
:10147000002B15DA7B6803F1FF337B6010E0FB7A09
:10148000F8681946FFF716FFFB6803F10103FB60DC
:101490007B6903F101037B617B6803F1FF337B60B0
:1014A0007B68002BEBDC3B68002B0CDAF8684FF014
:1014B0002D01FFF7FFFE03467A69D3187B61FB68B5
:1014C00003F10103FB6039694CF6CD43CCF6CC4304
:1014D000A3FB01234FEAD30213464FEA83039B1871
:1014E0004FEA4303CA1AD3B203F13003DBB2F86800
:1014F0001946FFF7DFFE03467A69D3187B617B69E3
:10150000184607F11807BD4680BD00BF80B588B0FA
:1015100002AFF8607A600A46FA72BB724FF00003BD
:101520007B617B6803F1FF337B603B6A4FEA1313F7
:10153000002B24D03B6A4FEA1311FA7ABB7A009150
:10154000F86811467A68FFF7E1FF03467A69D31815
:101550007B617B69FA68D318FB6013E0FB7AF8685B
:101560001946FFF7A7FEFB6803F10103FB607B69E7
:1015700003F101037B617B6803F1FF337B607B68D0
:10158000002BEBDC3B6A03F00F03092B0CD83B6A02
:10159000DBB203F00F03DBB203F13003DBB2F86818
:1015A0001946FFF787FE1BE0BB7A002B0CD03B6A85
:1015B000DBB203F00F03DBB203F13703DBB2F868F1
:1015C0001946FFF777FE0BE03B6ADBB203F00F032F
:1015D000DBB203F15703DBB2F8681946FFF76AFE86
:1015E0007B6903F101037B617B69184607F11807EA
:1015F000BD4680BD80B58AB002AFF860B9607A6040
:101600003B604FF00003BB614FF000037B61FB6860
:10161000002B00F02281FB684FF000021A701CE1E1
:101620007B681B78252B10D07B681A78FB681A70B2
:10163000FB6803F10103FB607B6803F101037B603E
:101640007B6903F101037B6108E17B6803F101031E
:101650001B78252B10D1FB684FF025021A70FB6810
:1016600003F10103FB607B6803F102037B607B698C
:1016700003F101037B61F1E04FF02003FB774FF0B2
:101680000003BB777B6803F101037B607B681B78F9
:10169000302B1BD14FF03003FB777B6803F1010344
:1016A0007B6013E0BB7F1A464FEA8202D3184FEAF1
:1016B0004303DAB27B681B78D318DBB2A3F13003A3
:1016C000BB777B6803F101037B6000E000BF7B68B0
:1016D0001B782F2B03D97B681B78392BE2D9BA7F73
:1016E0007B69D3181A46BB689A4205D9BB68DAB23F
:1016F0007B69DBB2D31ABB777B681B78A3F15803F5
:10170000202B00F29A8001A252F823F0E71700087C
:101710003B1800083B1800083B1800083B1800085D
:101720003B1800083B1800083B1800083B1800084D
:101730003B1800083B180008211800089117000802
:101740003B1800083B1800083B1800083B1800082D
:10175000911700083B1800083B1800083B180008C8
:101760003B1800083B1800083B1800083B1800080D
:101770003B1800083B180008091800083B1800082F
:10178000AB1700083B1800083B180008C5170008F5
:10179000BA7F3B6803F1040139601B68F97FF86880
:1017A000FFF71CFE0346BB614AE0BA7F3B6803F1CA
:1017B000040139601B68F97FF868FFF7B1FD034643
:1017C000BB613DE0BA7F3B6803F1040139601968F1
:1017D000FB7F0091F86819464FF00003FFF796FE73
:1017E0000346BB612CE0BA7F3B6803F1040139601A
:1017F0001968FB7F0091F86819464FF00103FFF765
:1018000085FE0346BB611BE03B6803F104023A60BE
:101810001B68F8681946FFF75FFD0346BB610FE0E0
:101820003B6803F104023A601B68DBB2F8681946B2
:10183000FFF740FD0346BB6102E04FF0FF332CE0B1
:101840007B6803F101037B60BB69FA68D318FB6016
:101850007A69BB69D3187B6100E000BF7B681B78A5
:10186000002B04D07A69BB689A42FFF4D9AE7A693A
:10187000BB689A4204D2FB684FF000021A700BE07A
:10188000FB6803F1FF33FB60FB684FF000021A7046
:101890007B6903F1FF337B617B69184607F1200701
:1018A000BD4680BD80B584B000AFF860B9607A6095
:1018B000F8684FF06401BA687B68FFF79BFE034647
:1018C000184607F11007BD4680BD00BF0EB480B5B5
:1018D00085B000AF786007F12003BB607868F969D4
:1018E000BA68FFF7DFFF0346FB60FB68184607F1A5
:1018F0001407BD46BDE8804003B0704780B582B094
:1019000000AF786040F22843C2F200031B689B6876
:101910007868194600F02CF80346184607F10807C6
:10192000BD4680BD80B582B000AF7860396040F2BE
:101930002843C2F200031B689A683B689A4208D0A9
:1019400040F22843C2F200031B68DA683B689A42FF
:1019500006D17B68DBB21846FFF7A2FC7B6801E08A
:101960004FF0FF33184607F10807BD4680BD00BFA2
:1019700080B584B000AF786039604FF00003FB6041
:1019800014E07B681B7818463968FFF7CBFF0346E5
:10199000B3F1FF3F02D14FF0FF330CE0FB6803F1DE
:1019A0000103FB607B6803F101037B607B681B78AC
:1019B000002BE6D1FB68184607F11007BD4680BD35
:1019C00080B485B000AF78604FF00003FB604FF447
:1019D0008053C4F202035B68FB60FB6823F460532E
:1019E000FB607B684FEAC303FA681343FB604FF464
:1019F0008053C4F20203FA685A6007F11407BD4627
:101A000080BC704780B48BB000AF78604FF00003AB
:101A10003B624FF000037B624FF00003FB614FF02D
:101A20000003BB614FF000037B614FF000033B619B
:101A30004FF00003FB604FF00003BB604FF4805396
:101A4000C4F202035B6803F00C033B623B6A042BA5
:101A50000BD0082B10D0002B40F087807A684FF411
:101A60009053C0F27A03136086E07A6847F6400329
:101A7000C0F27D1313607FE04FF48053C4F2020381
:101A80005B6803F470137B624FF48053C4F202036B
:101A90005B6803F48033FB617B6A4FEA93437B62AC
:101AA0007B6A0D2B04D07B6A03F102037B6202E0A8
:101AB0004FF006037B62FB69002B09D17A6A4FF471
:101AC0001063C0F23D0303FB02F27B681A6053E02F
:101AD0004FF48053C4F20203DB6A03F480337B616A
:101AE0004FF48053C4F20203DB6A03F00F0303F1E7
:101AF00001033B617B69002B0CD147F64003C0F228
:101B00007D133A69B3FBF2F37A6A02FB03F27B6856
:101B10001A6031E04FF48053C4F20203DB6A03F031
:101B2000F0034FEA131303F10103FB604FF48053FA
:101B3000C4F20203DB6A03F470634FEA132303F178
:101B40000203BB6047F64003C0F27D13FA68B3FBA3
:101B5000F2F3BA6802FB03F23B69B2FBF3F37A6A71
:101B600002FB03F27B681A6006E07A684FF4905338
:101B7000C0F27A03136000BF4FF48053C4F2020333
:101B80005B6803F0F0033B623B6A4FEA13133B626E
:101B900040F23043C2F200033A6A9B181B78DBB272
:101BA000BB617B681A68BB6922FA03F27B685A60E2
:101BB0004FF48053C4F202035B6803F4E0633B62BA
:101BC0003B6A4FEA13233B6240F23043C2F2000308
:101BD0003A6A9B181B78DBB2BB617B685A68BB69A9
:101BE00022FA03F27B689A604FF48053C4F2020336
:101BF0005B6803F460533B623B6A4FEAD3233B626A
:101C000040F23043C2F200033A6A9B181B78DBB201
:101C1000BB617B685A68BB6922FA03F27B68DA60B1
:101C20004FF48053C4F202035B6803F440433B6209
:101C30003B6A4FEA93333B6240F24043C2F20003F7
:101C40003A6A9B181B78DBB2BB617B68DA68BB69B8
:101C5000B2FBF3F27B681A6107F12C07BD4680BC2A
:101C6000704700BF80B483B000AF78600B46FB7054
:101C7000FB78002B0DD04FF48053C4F202034FF4D5
:101C80008052C4F20202926911467A680A439A614C
:101C90000EE04FF48053C4F202034FF48052C4F2BA
:101CA0000202926911467A686FEA02020A409A615A
:101CB00007F10C07BD4680BC704700BF80B483B0FD
:101CC00000AF78600B46FB70FB78002B0DD04FF413
:101CD0008053C4F202034FF48052C4F20202D2696C
:101CE00011467A680A43DA610EE04FF48053C4F279
:101CF00002034FF48052C4F20202D26911467A689C
:101D00006FEA02020A40DA6107F10C07BD4680BCA7
:101D1000704700BF80B582B000AF43F2F833C0F621
:101D200000037B6040F20003C2F200033B600BE063
:101D30007B681A683B681A603B6803F104033B60E8
:101D40007B6803F104037B603A6840F24853C2F2B7
:101D500000039A42ECD3084808494FF00002884239
:101D6000B8BF40F8042BFADBFEF7A0FFFFF77CFAC0
:101D700007F10807BD4680BD48050020A455002096
:101D800080B400AFFEE700BF80B586B000AF4FF46F
:101D90008060FFF715FE41F215004FF00101FFF7DB
:101DA00061FF4FF01003FB704FF00303BB704FF067
:101DB000C0033B803B464FF48050C4F201001946FB
:101DC000FFF7ECF84FF48050C4F201004FF04001EF
:101DD000FFF7BCF94FF01803FB704FF0E0033B80B6
:101DE0003B464FF40060C4F201001946FFF7D6F8F5
:101DF0004FF00003BB804FF48273FB804FF0000371
:101E00003B814FF000037B814FF00103BB814FF416
:101E10000073FB814FF020033B824FF000037B8275
:101E20004FF00003BB8207F104034FF44050C4F2AB
:101E30000100194601F04AF84FF44050C4F2010085
:101E40004FF0010101F086F807F11807BD4680BD8B
:101E500080B582B000AF00F0B1F94FF00403FB7120
:101E60004FF00F03BB804FF00303BB7107F1040376
:101E70004FF48050C4F201001946FFF78FF84FF07D
:101E80001403FB714FF00503BB8007F104034FF40B
:101E90008050C4F201001946FFF780F84FF010039C
:101EA000FB714FF48073BB8007F104034FF4805043
:101EB000C4F201001946FFF771F84FF00403FB71FB
:101EC0004FF40073BB8007F104034FF48050C4F259
:101ED00001001946FFF762F84FF002004FF00901C8
:101EE000FFF768F900F08CF94FF48050C4F201005C
:101EF0004FF00101FFF72AF94FF48050C4F20100BE
:101F00004FF00401FFF722F900F046F84FF01E00F1
:101F1000FEF7B2FE40F28453C2F200034FF000021B
:101F20001A8000F0E7F807F10807BD4680BD00BF42
:101F300080B582B000AF0346FB7100BF4FF4405044
:101F4000C4F201004FF0020101F040F80346002BFB
:101F5000F4D0FB799BB24FF44050C4F20100194613
:101F600001F018F800BF4FF44050C4F201004FF0E8
:101F7000800101F02BF80346002BF4D14FF44050C0
:101F8000C4F2010001F014F80346DBB2184607F171
:101F90000807BD4680BD00BF80B500AF4FF480503C
:101FA000C4F201004FF04001FFF7D0F84FF4805029
:101FB000C4F201004FF00401FFF7C8F84FF004002D
:101FC000FEF75AFE4FF48050C4F201004FF00401B6
:101FD000FFF7CAF84FF0230000F04AF84FF48050A2
:101FE000C4F201004FF00401FFF7B0F84FF4AF70F6
:101FF00000F03EF84FF48050C4F201004FF00101B0
:10200000FFF7A4F84FF06400FEF736FE4FF480505F
:10201000C4F201004FF00401FFF7A6F84FF02300CF
:1020200000F026F84FF48050C4F201004FF0040194
:10203000FFF78CF84FF4AF7000F01AF84FF48050AF
:10204000C4F201004FF04001FFF78EF84FF011008D
:10205000FFF76EFF4FF0460000F00AF84FF4805093
:10206000C4F201004FF04001FFF770F880BD00BFDF
:1020700080B483B000AF0346FB8003E0FB8803F12C
:10208000FF33FB80FB88002BF8D107F10C07BD461E
:1020900080BC704780B582B000AF02460B46FA7133
:1020A000BB714FF48050C4F201004FF04001FFF7C4
:1020B0005BF8FB7903F01F03FB71FB7943F04003EE
:1020C000FB71FB791846FFF733FF4FF00000FFF775
:1020D0002FFFBB791846FFF72BFF4FF48050C4F257
:1020E00001004FF04001FFF731F807F10807BD4646
:1020F00080BD00BF80B500AF4FF003004FF0C001BE
:10210000FFF7C8FF4FF00F00FEF7B6FD4FF00100DC
:102110004FF08601FFF7BEFF4FF005004FF0400182
:10212000FFF7B8FF4FF006004FF04001FFF7B2FF96
:102130004FF007004FF04001FFF7ACFF4FF00800F1
:102140004FF04001FFF7A6FF4FF009004FF04001AC
:10215000FFF7A0FF4FF00A004FF04001FFF79AFF92
:102160004FF00B004FF04001FFF794FF4FF00C00D1
:102170004FF04001FFF78EFF4FF48050C4F2010092
:102180004FF48071FEF7E2FF4FF48050C4F201007B
:102190004FF04001FEF7E8FF4FF01000FFF7C8FED8
:1021A0004FF04600FFF764FF4FF48050C4F2010087
:1021B0004FF04001FEF7CAFF80BD00BF80B582B07E
:1021C00000AF4FF000604FF0000100F069FE4FF4E7
:1021D000C06000F0DDFD4FF017033B714FF00003CE
:1021E0007B714FF00003BB714FF00103FB7107F1EE
:1021F0000403184600F0E0FD07F10807BD4680BD66
:1022000080B582B000AF4FF400733B604FF0000325
:102210003B714FF00C037B714FF00103BB713B46E8
:10222000184600F0D1FA07F10807BD4680BD00BF8F
:10223000B0B594B002AF78604FF000044FF00003E7
:102240007B874FF0FA03A7F840304FF000037B6420
:1022500040F27853C2F200034FF000021A7040F2CD
:102260007953C2F200034FF000021A7042F2A450F8
:10227000C2F2000000F05AFFFEF7F2FC02467B6853
:102280004FF47A7101FB03F3D318FB6340F28053E0
:10229000C2F200034FF000021A8040F28453C2F2EF
:1022A00000034FF000021A8040F27A53C2F200039A
:1022B0004FF001021A7016E100BF40F27853C2F2EB
:1022C00000031B78002BF8D040F27853C2F20003D1
:1022D0004FF000021A7040F24443C2F200034FF084
:1022E00000021A704FF0010387F843304FF00005E9
:1022F00061E097F84330002B03D04FF00000FEF769
:102300006DF84FF0000445E023464FEA43222B4688
:10231000D3184FEA430240F28853C2F20003D118A7
:1023200023464FEA032242F2A453C2F20003D2181A
:1023300023464FEA43202B46C3184FEA430042F698
:10234000A453C2F20003C01807F13A0300900846F4
:1023500011461A4640F24843C2F2000300F074FEF0
:1023600097F84330002B12D07B6C03F101037B64A0
:1023700021462A4640F28853C2F200034FEA412127
:102380008A1833F812301BB21846FDF7F5FF04F136
:1023900001039CB2072CB7D997F8433083F00103AF
:1023A000DBB287F8433007F13A03184600F02EFEFF
:1023B00005F101039DB2B7F84030AB4299D840F225
:1023C0004443C2F200034FF001021A704FF00103C0
:1023D00087F8433000BF40F27953C2F200031B7804
:1023E000002BF8D040F27953C2F200034FF0000204
:1023F0001A7040F24543C2F200034FF000021A7017
:10240000B7F8405061E097F84330002B03D04FF00D
:102410000000FDF7E3FF4FF0000445E023464FEADC
:1024200043222B46D3184FEA430240F28853C2F2AC
:102430000003D11823464FEA032242F2A453C2F20A
:102440000003D21823464FEA43202B46C3184FEA15
:10245000430042F6A453C2F20003C01807F13A0346
:102460000090084611461A4640F24843C2F2000363
:1024700000F0EAFD97F84330002B12D07B6C03F19B
:1024800001037B6421462A4640F28853C2F20003CE
:102490004FEA41218A1833F812301BB21846FDF773
:1024A0006BFF04F101039CB2072CB7D997F84330B6
:1024B00083F00103DBB287F8433007F13A03184693
:1024C00000F0A4FD05F101039DB22A46B7F84030A3
:1024D0004FEA43039A4296DB40F24543C2F20003BF
:1024E0004FF001021A70FEF7BBFB0246FB6B9A42EB
:1024F000FFF4E2AE40F27A53C2F200034FF0000262
:102500001A7007F10803184643F2EC31C0F60001D7
:102510007A6CFFF7DBF907F108031846FEF7FAFAC1
:102520004FF00A00FEF7AAFA4FF07F00FDF756FFC2
:1025300007F14807BD46B0BDB0B582B000AF4FF45B
:10254000007000F0E3F90346002B00F0318140F207
:102550007A53C2F200031B78002B00F0298140F26D
:102560007C53C2F200031B6803F1010240F27C536A
:10257000C2F200031A604FF48050C4F201004FF021
:102580004001FEF7F1FD4FF01200FFF7D1FC4FF0D4
:1025900000040EE025464FF00000FFF7C9FC03469B
:1025A0001A4642F28853C2F200035A5504F101035D
:1025B000DCB21A2CEED940F28453C2F200031B881D
:1025C0001A4642F28853C2F200031B784FEA0341D5
:1025D00042F28853C2F200035B784FEA03231943A7
:1025E00042F28853C2F200039B78194344F6A45385
:1025F000C2F2000343F822104FF0000475E02346B6
:1026000003F10103DBB21A464FEA4202D318FB7012
:10261000FA7842F28853C2F200039B5C4FEA03420D
:10262000FB7803F1010142F28853C2F200035B5CC4
:102630004FEA03231A43FB7803F1020142F2885365
:10264000C2F200035B5C13437B607B6803F400030E
:10265000002B03D07B6843F07F437B607A6847F6AA
:10266000FF739A4212DD214640F28453C2F2000306
:102670001B881A4640F28853C2F200034FEA4121F8
:102680008A1847F6FF7123F812102BE07A6848F297
:102690000103CFF6FF739A4212DA214640F28453C7
:1026A000C2F200031B881A4640F28853C2F20003AC
:1026B0004FEA41218A1848F2010123F8121011E073
:1026C000204640F28453C2F200031B881A467B68FE
:1026D00099B240F28853C2F200034FEA40208218B8
:1026E00023F8121004F10103DCB2072C87D940F261
:1026F0008453C2F200031B8803F101039AB240F233
:102700008453C2F200031A8040F28053C2F20003E5
:102710001B8803F101039AB240F28053C2F2000316
:102720001A8040F28453C2F200031B88F92B13D1A4
:1027300040F24543C2F200031B78002B05D143F25F
:10274000F030C0F60000FEF7E5F940F27853C2F22F
:1027500000034FF001021A7040F28453C2F20003EA
:102760001A8840F2F3139A421AD140F24443C2F25B
:1027700000031B78002B05D143F2F030C0F60000B7
:10278000FEF7C8F940F27953C2F200034FF001029C
:102790001A7040F28453C2F200034FF000021A8014
:1027A0004FF48050C4F201004FF04001FEF7CEFC20
:1027B0004FF4007000F0D8F84FF04600FFF758FCD7
:1027C00007F10807BD46B0BD80B485B000AF7860A2
:1027D0004FF00003FB604FF48063C4F20103FB6021
:1027E0007B689B79002B7ED04FF48063C4F2010399
:1027F0004FF48062C4F20102126811467A681268CE
:102800006FEA02020A401A604FF48063C4F20103C7
:102810004FF48062C4F20102526811467A6812686D
:102820006FEA02020A405A607B681B79FA68D31883
:10283000FB60FB68FA6811687A6812680A431A60DC
:102840004FF48063C4F201034FF48062C4F20102CA
:10285000926811467A6812686FEA02020A409A602A
:102860004FF48063C4F201034FF48062C4F20102AA
:10287000D26811467A6812686FEA02020A40DA608A
:102880007B685B79102B1CD14FF48063C4F2010389
:102890004FF48062C4F20102926811467A681268AD
:1028A0000A439A604FF48063C4F201034FF48062DC
:1028B000C4F20102D26811467A6812680A43DA60EB
:1028C0001FE04FF48063C4F20103FB607B685B7917
:1028D000FA68D318FB60FB68FA6811687A681268B6
:1028E0000A431A600DE07B681B79FA68D318FB6015
:1028F000FB68FA6811687A6812686FEA02020A4097
:102900001A6007F11407BD4680BC704780B485B0DB
:1029100000AF78604FF00003FB734FF00003BB6023
:102920004FF48063C4F201031B681A467B681340AE
:10293000BB604FF48063C4F201035B691A467B6895
:102940001340002B06D0BB68002B03D04FF00103CF
:10295000FB7302E04FF00003FB73FB7B184607F1AB
:102960001407BD4680BC704780B483B000AF786068
:102970004FF48063C4F201037A685A6107F10C07CF
:10298000BD4680BC704700BF80B58CB000AF78609A
:1029900039604FF00003FB624FF00003BB624FF061
:1029A00000037B624FF000033B624FF00003FB61CA
:1029B0007B68FB617B681B8A9BB2FB62FA6A4CF600
:1029C000FF731340FB623B68DB88FA6A1343FB62C8
:1029D000FB6A9AB27B681A827B689B899BB2FB6216
:1029E000FA6A4EF6F3131340FB623B689A883B6821
:1029F0001B8913439AB23B685B8913439BB2FA6A03
:102A00001343FB62FB6A9AB27B689A817B689B8A5C
:102A10009BB2FB62FA6A4FF6FF431340FB623B68CE
:102A20009B89FA6A1343FB62FB6A9AB27B689A82BB
:102A300007F108031846FEF7E5FFFA694FF4605303
:102A4000C4F201039A4202D17B69BB6201E03B6997
:102A5000BB627B689B899BB29BB21BB2002B0FDAD7
:102A6000BA6A13464FEA83039B184FEA83029A1807
:102A70003B681B684FEA4303B2FBF3F37B620EE053
:102A8000BA6A13464FEA83039B184FEA83029A18E7
:102A90003B681B684FEA8303B2FBF3F37B627A6AFD
:102AA00048F21F53C5F2EB13A3FB02134FEA531373
:102AB0004FEA0313FB62FB6A4FEA13134FF0640201
:102AC00002FB03F37A6AD31A3B627B689B899BB251
:102AD0009BB21BB2002B12DA3B6A4FEAC30303F12D
:102AE000320248F21F53C5F2EB13A3FB02134FEA65
:102AF000531303F00703FA6A1343FB6211E03B6AC6
:102B00004FEA031303F1320248F21F53C5F2EB13ED
:102B1000A3FB02134FEA531303F00F03FA6A1343A4
:102B2000FB62FB6A9AB27B681A8107F13007BD46E7
:102B300080BD00BF80B483B000AF78600B46FB70EF
:102B4000FB78002B08D07B689B899BB243F4005331
:102B50009AB27B689A8107E07B689B899BB223F4D9
:102B600000539AB27B689A8107F10C07BD4680BC7E
:102B7000704700BF80B487B000AF786013460A4644
:102B80007A807B704FF000033B614FF00003FB60E5
:102B90004FF00003BB604FF000037B617B687B61FB
:102BA0007B88DBB24FEA5313DBB23B617B8803F0D7
:102BB0001F03FB60FB684FF0010202FA03F3BB60E6
:102BC0003B69012B04D17B6903F10C037B610BE0B2
:102BD0003B69022B04D17B6903F110037B6103E0A5
:102BE0007B6903F114037B617B78002B06D07B6942
:102BF0007A691168BA680A431A6007E07B697A69E2
:102C00001168BA686FEA02020A401A6007F11C07ED
:102C1000BD4680BC704700BF80B483B000AF786011
:102C20000B467B807B884FEAC3534FEAD3539AB25B
:102C30007B689A8007F10C07BD4680BC704700BFD7
:102C400080B483B000AF78607B689B889BB24FEA0A
:102C5000C3534FEAD3539BB2184607F10C07BD4646
:102C600080BC704780B485B000AF78600B467B8035
:102C70004FF00003FB737B681B889AB27B8813407C
:102C80009BB2002B03D04FF00103FB7302E04FF027
:102C90000003FB73FB7B184607F11407BD4680BC9D
:102CA000704700BF80B487B000AF78600B467B8070
:102CB0004FF00003FB604FF000037B614FF0000317
:102CC000BB604FF00003FB747B88DBB24FEA531309
:102CD000DBB2BB607B8803F01F037B617B694FF035
:102CE000010202FA03F37B61BB68012B06D17B680A
:102CF0009B899BB27A6913407B610FE0BB68022B12
:102D000006D17B681B8A9BB27A6913407B6105E020
:102D10007B689B8A9BB27A6913407B617B884FEA10
:102D200013239BB2FB60FB684FF0010202FA03F32E
:102D3000FB607B681B889BB2FA681340FB607B6971
:102D4000002B06D0FB68002B03D04FF00103FB746F
:102D500002E04FF00003FB74FB7C184607F11C07F0
:102D6000BD4680BC704700BFABBE01E0002070478D
:102D7000002A00D010600120704706980188034A9D
:102D8000914202D1043006907047FEE7ABBE0000CE
:102D900080B483B000AF78604FF46D43CEF200038F
:102DA0007A6842F0BE6242F42022DA6007F10C0732
:102DB000BD4680BC704700BF80B487B000AF78606C
:102DC0004FF000037B614FF000033B614FF00F03B6
:102DD000FB607B68DB78002B47D04FF46D43CEF26D
:102DE0000003DB686FEA030303F4E0634FEA132395
:102DF0007B617B69C3F104033B617B69FA6822FA5A
:102E000003F3FB607B685B781A463B6902FA03F3C5
:102E10007B617B689B781A46FB6813407A69134391
:102E20007B617B694FEA03137B614FF46143CEF210
:102E300000037A68127811467A69D2B25B1883F877
:102E400000234FF46143CEF200037A6812784FEA10
:102E50005212D2B27968097801F01F014FF00100D7
:102E600000FA01F143F8221014E04FF46143CEF26E
:102E700000037A6812784FEA5212D2B27968097860
:102E800001F01F014FF0010000FA01F102F12002F0
:102E900043F8221007F11C07BD4680BC704700BFF5
:102EA00080B483B000AF786039604FF46D43CEF2E8
:102EB00000033A6822F0604222F07F0279680A43F8
:102EC0009A6007F10C07BD4680BC704780B485B09E
:102ED00000AF786039604FF00003FB817B681B888E
:102EE000FB81FB8903F44153FB813B681A883B68F3
:102EF0005B8813439AB23B689B8813439AB23B6842
:102F0000DB8813439AB23B681B8913439AB23B6830
:102F10005B8913439AB23B689B8913439AB23B681F
:102F2000DB8913439AB2FB891343FB817B68FA89DF
:102F30001A807B689B8B9BB223F400639AB27B68F8
:102F40009A833B681A8A7B681A8207F11407BD4688
:102F500080BC704780B483B000AF78600B46FB70D4
:102F6000FB78002B08D07B681B889BB243F04003A2
:102F70009AB27B681A8007E07B681B889BB223F0BB
:102F800040039AB27B681A8007F10C07BD4680BCEB
:102F9000704700BF80B483B000AF78600B467B8081
:102FA0007B687A889A8107F10C07BD4680BC704720
:102FB00080B483B000AF78607B689B899BB2184671
:102FC00007F10C07BD4680BC704700BF80B485B0D8
:102FD00000AF78600B467B804FF00003FB737B688B
:102FE0001B899AB27B8813409BB2002B03D04FF011
:102FF0000103FB7302E04FF00003FB73FB7B1846F9
:1030000007F11407BD4680BC704700BF80B483B091
:1030100000AF78607B681B881BB203F101024FF0A0
:103020007F03C8F200031340002B05DA03F1FF33DE
:1030300063F07F0303F101039AB27B681A8007F102
:103040000C07BD4680BC704780B489B000AFF86003
:10305000B9607A603B604FF00003FB614FF0000302
:103060007B837B681B881BB24FEA4303BA68D31883
:10307000FA6812881A807B681B881BB203F1010270
:103080004FF07F03C8F200031340002B05DA03F171
:10309000FF3363F07F0303F101037B614FF0000313
:1030A0007B8328E0B7F91A304FEA43033A68D31814
:1030B0001B881BB27A694FEA4202B9688A181288E3
:1030C00012B202FB03F3FA69D318FB617B6903F1C7
:1030D00001024FF07F03C8F200031340002B05DA12
:1030E00003F1FF3363F07F0303F101037B617B8B0B
:1030F00003F101037B83B7F91A307F2BD2DDFA6924
:1031000044F6D353C1F2620383FB02134FEAA311C7
:103110004FEAE273CB1AFB61FB699AB2BB6A1A8071
:1031200007F12407BD4680BC704700BF80B485B05E
:1031300000AF78604FF00003FB8118E04FF0000310
:10314000BB810DE0FB894FEA03237A68D318BA8963
:103150004FF0000123F81210BB8903F10103BB817A
:10316000BB897F2BEED9FB8903F10103FB81FB892E
:10317000072BE3D907F11407BD4680BC704700BF99
:1031800041540D004D616B65204563672E0D0A00AB
:10319000446973636F6E6E65637465640D0A000045
:1031A0004254204C696E6561206D7579206C6172A6
:1031B00067612E0D00000000425420436F6E6E6563
:1031C000637465642E0D0A0041545A0D000000001E
:1031D0004D6F64756C6F207265696E6963696164B7
:1031E0006F2E0D0A000000005B4552524F525D20C9
:1031F0004D6F64756C6F206E6F20656E636F6E74BB
:103200007261646F2E0D0A005B4F4B5D204D6F6441
:10321000756C6F20656E636F6E747261646F2E0DD6
:103220000A000000415445300D0000005B4F4B5D2B
:10323000204254204543484F20646573616374699C
:103240007661646F200D0A005B4552524F525D203B
:103250004254204543484F2069676E6F7261646F26
:10326000200D0A005B4552524F525D204254204DC2
:103270006F64756C6F206E6F20656E636F6E747215
:1032800061646F0D0A0000004154490D0000000008
:103290005B4552524F525D20425420456C206D6F69
:1032A00064756C6F206E6F20726573706F64696FE8
:1032B0002061204154492E0D0A0000005B4F4B5DF8
:1032C000204254204D6F64756C6F20656E636F6E85
:1032D000747261646F3A20000A0000005B4F4B5D1E
:1032E000204254204D6F64756C6F20657370657259
:1032F000616E646F20636F6E6578696F6E206465C0
:1033000020636C69656E74652E0A00004543472092
:103310005265616479210A004D6F64756C6F206E8F
:103320006F20656E636F6E747261646F2E0D0A009C
:10333000436F6E6669677572616E646F206D6F644E
:10334000756C6F2E0D0A00006174733532303D319B
:1033500031353230300D000061742B62746E3D22C5
:10336000506F727461626C6520456367220D0000C6
:103370006174733130323D310D000000617473307F
:103380003D310D0061742B62746B3D223030303062
:10339000220D00006174733332313D300D000000A6
:1033A0006174733531323D340D00000041542657AD
:1033B0000D0000005265696E696369616E646F2E6D
:1033C0002E2E0D006D0000004D616B6520454347BA
:1033D0002E0D0A004E000000425420446973636FB2
:1033E0006E6E65637465642E0D0A0000256400002E
:0833F0004572726F72210A00A0
:1033F80000000000000000000100000000000000C4
:1034080000000000000000000000000000000000B4
:1034180000000000000000000000000000000000A4
:103428000000000000000000000000000000000094
:103438000000000000000000000000000000000084
:103818000000000000000000000000200000000080
:10382800000000000102030401020304060708095E
:10383800020406080101000000000000000000006A
:10384800010000000000000000000000010002006C
:103858000300030003000300030003000300040047
:103868000400030002000100010002000400060039
:10387800070006000200FEFFF8FFF4FFF4FFF9FF5F
:10388800000006000A000600FDFFEFFFE2FFDAFF76
:10389800DDFFE8FFF8FF05000B000500F5FFDEFF80
:1038A800CAFFC0FFC6FFD8FFF1FF04000C000400E8
:1038B800EFFFD4FFBEFF9A03BEFFD4FFEFFF040063
:1038C8000C000400F1FFD8FFC6FFC0FFCAFFDEFFEF
:1038D800F5FF05000B000500F8FFE8FFDDFFDAFF44
:1038E800E2FFEFFFFDFF06000A0006000000F9FFF7
:1038F800F4FFF4FFF8FFFEFF0200060007000600D1
:10390800040002000100010002000300040004009A
:103918000300030003000300030003000300020088
:10392800010000000000000000000000010000008D
:08393800000000000000000087
:040000050800127C61
:00000001FF
